:020000040800F2
:10000000008001209D420008EF420008FD420008E8
:1000100003430008094300080F43000800000000E4
:10002000000000000000000000000000712800082F
:100030001543000800000000812A0008D11B0008B9
:10004000ED420008ED420008ED420008ED420008D4
:10005000ED420008ED42000825170008ED420008B7
:1000600049170008ED420008ED420008ED42000883
:10007000ED420008ED420008ED420008ED420008A4
:10008000ED420008ED420008ED420008ED42000894
:10009000ED420008ED420008ED420008ED42000884
:1000A000ED420008ED420008ED420008DD1B0008AB
:1000B000ED420008391C0008ED420008ED4200083E
:1000C000ED420008ED420008ED420008ED42000854
:1000D000ED420008ED420008ED420008ED42000844
:1000E000ED420008ED420008ED420008ED42000834
:1000F000ED420008ED420008ED420008ED42000824
:10010000ED420008ED420008ED420008ED42000813
:10011000ED420008ED420008ED420008ED42000803
:10012000ED420008ED420008ED420008ED420008F3
:10013000ED420008ED420008ED420008ED420008E3
:10014000ED420008ED420008ED420008ED420008D3
:10015000ED420008ED420008ED420008ED420008C3
:10016000ED420008ED420008ED420008ED420008B3
:10017000ED420008ED420008ED420008ED420008A3
:08018000ED420008ED42000809
:1001900010B5054C237833B9044B13B10448AFF3C1
:1001A00000800123237010BD180000200000000013
:1001B000CC47000808B5034B1BB103490348AFF314
:1001C000008008BD000000001C000020CC47000893
:1001D00081F0004102E000BF83F0004330B54FEAF8
:1001E00041044FEA430594EA050F08BF90EA020F65
:1001F0001FBF54EA000C55EA020C7FEA645C7FEAF8
:10020000655C00F0E2804FEA5454D4EB5555B8BF1A
:100210006D420CDD2C4480EA020281EA030382EA8B
:10022000000083EA010180EA020281EA0303362D1D
:1002300088BF30BD11F0004F4FEA01314FF4801CF0
:100240004CEA113102D0404261EB410113F0004F02
:100250004FEA03334CEA133302D0524263EB4303B9
:1002600094EA050F00F0A780A4F10104D5F1200E57
:100270000DDB02FA0EFC22FA05F2801841F10001B2
:1002800003FA0EF2801843FA05F359410EE0A5F186
:1002900020050EF1200E012A03FA0EFC28BF4CF0B7
:1002A000020C43FA05F3C01851EBE37101F000456D
:1002B00007D54FF0000EDCF1000C7EEB00006EEB7A
:1002C0000101B1F5801F1BD3B1F5001F0CD3490804
:1002D0005FEA30004FEA3C0C04F101044FEA44525B
:1002E00012F5800F80F09A80BCF1004F08BF5FEAE2
:1002F000500C50F1000041EB045141EA050130BDC2
:100300005FEA4C0C404141EB010111F4801FA4F164
:100310000104E9D191F0000F04BF01460020B1FAB9
:1003200081F308BF2033A3F10B03B3F120020CDAF1
:100330000C3208DD02F1140CC2F10C0201FA0CF0CF
:1003400021FA02F10CE002F11402D8BFC2F1200C34
:1003500001FA02F120FA0CFCDCBF41EA0C019040EA
:10036000E41AA2BF01EB0451294330BD6FEA040433
:100370001F3C1CDA0C340EDC04F11404C4F120021E
:1003800020FA04F001FA02F340EA030021FA04F330
:1003900045EA030130BDC4F10C04C4F1200220FA87
:1003A00002F001FA04F340EA0300294630BD21FAC5
:1003B00004F0294630BD94F0000F83F4801306BF8B
:1003C00081F480110134013D4EE77FEA645C18BF7F
:1003D0007FEA655C29D094EA050F08BF90EA020F16
:1003E00005D054EA000C04BF1946104630BD91EA0E
:1003F000030F1EBF0021002030BD5FEA545C05D111
:100400004000494128BF41F0004130BD14F580044F
:100410003CBF01F5801130BD01F0004545F0FE41C3
:1004200041F470014FF0000030BD7FEA645C1ABFF8
:10043000194610467FEA655C1CBF0B46024650EA2F
:10044000013406BF52EA033591EA030F41F400215B
:1004500030BD00BF90F0000F04BF0021704730B5E1
:100460004FF4806404F132044FF000054FF00001B6
:1004700050E700BF90F0000F04BF0021704730B577
:100480004FF4806404F1320410F0004548BF40424C
:100490004FF000013EE700BF42004FEAE2014FEAA1
:1004A00031014FEA02701FBF12F07F4393F07F4F7C
:1004B00081F06051704792F0000F14BF93F07F4FAE
:1004C000704730B54FF4607401F0004521F00041F1
:1004D00020E700BF50EA010208BF704730B54FF077
:1004E00000050AE050EA010208BF704730B511F07C
:1004F000004502D5404261EB41014FF4806404F1B4
:1005000032045FEA915C3FF4DCAE4FF003025FEA35
:10051000DC0C18BF03325FEADC0C18BF033202EBBD
:10052000DC02C2F1200300FA03FC20FA02F001FA17
:1005300003FE40EA0E0021FA02F11444C1E600BFB6
:1005400070B54FF0FF0C4CF4E06C1CEA11541DBF69
:100550001CEA135594EA0C0F95EA0C0F00F0DEF834
:100560002C4481EA030621EA4C5123EA4C5350EA19
:10057000013518BF52EA033541F4801143F480136A
:1005800038D0A0FB02CE4FF00005E1FB02E506F0FB
:100590000042E0FB03E54FF00006E1FB03569CF050
:1005A000000F18BF4EF0010EA4F1FF04B6F5007F56
:1005B00064F5407404D25FEA4E0E6D4146EB0606C8
:1005C00042EAC62141EA55514FEAC52040EA5E5051
:1005D0004FEACE2EB4F1FD0C88BFBCF5E06F1ED8FB
:1005E000BEF1004F08BF5FEA500E50F1000041EB32
:1005F000045170BD06F0004646EA010140EA0200DF
:1006000081EA0301B4EB5C04C2BFD4EB0C0541EA00
:10061000045170BD41F480114FF0000E013C00F315
:10062000AB8014F1360FDEBF002001F0004170BD39
:10063000C4F10004203C35DA0C341BDC04F1140452
:10064000C4F1200500FA05F320FA04F001FA05F2DE
:1006500040EA020001F0004221F0004110EBD370AB
:1006600021FA04F642EB06015EEA430E08BF20EAD7
:10067000D37070BDC4F10C04C4F1200500FA04F37A
:1006800020FA05F001FA04F240EA020001F000410C
:1006900010EBD37041F100015EEA430E08BF20EA7F
:1006A000D37070BDC4F1200500FA05F24EEA020EC7
:1006B00020FA04F301FA05F243EA020321FA04F0F6
:1006C00001F0004121FA04F220EA020000EBD370AD
:1006D0005EEA430E08BF20EAD37070BD94F0000FAD
:1006E0000FD101F00046400041EB010111F4801FE1
:1006F00008BF013CF7D041EA060195F0000F18BF92
:10070000704703F00046520043EB030313F4801FCD
:1007100008BF013DF7D043EA0603704794EA0C0F87
:100720000CEA135518BF95EA0C0F0CD050EA41069D
:1007300018BF52EA4306D1D181EA030101F000411A
:100740004FF0000070BD50EA410606BF1046194642
:1007500052EA430619D094EA0C0F02D150EA01364E
:1007600013D195EA0C0F05D152EA03361CBF10468F
:1007700019460AD181EA030101F0004141F0FE412E
:1007800041F470014FF0000070BD41F0FE4141F4B2
:10079000780170BD70B54FF0FF0C4CF4E06C1CEAB2
:1007A00011541DBF1CEA135594EA0C0F95EA0C0F67
:1007B00000F0A7F8A4EB050481EA030E52EA033522
:1007C0004FEA013100F088804FEA03334FF0805543
:1007D00045EA131343EA12634FEA022245EA111570
:1007E00045EA10654FEA00260EF000419D4208BF21
:1007F000964244F1FD0404F5407402D25B084FEACE
:100800003202B61A65EB03055B084FEA32024FF479
:1008100080104FF4002CB6EB020E75EB030E22BFD6
:10082000B61A754640EA0C005B084FEA3202B6EB96
:10083000020E75EB030E22BFB61A754640EA5C0045
:100840005B084FEA3202B6EB020E75EB030E22BFD5
:10085000B61A754640EA9C005B084FEA3202B6EBD6
:10086000020E75EB030E22BFB61A754640EADC0095
:1008700055EA060E18D04FEA051545EA16754FEAF7
:1008800006164FEAC30343EA52734FEAC2025FEA15
:100890001C1CC0D111F4801F0BD141EA00014FF0A4
:1008A00000004FF0004CB6E711F4801F04BF014375
:1008B0000020B4F1FD0C88BFBCF5E06F3FF6AFAE91
:1008C000B5EB030C04BFB6EB020C5FEA500C50F121
:1008D000000041EB045170BD0EF0004E4EEA1131A4
:1008E00014EB5C04C2BFD4EB0C0541EA045170BDAB
:1008F00041F480114FF0000E013C90E645EA060EEF
:100900008DE60CEA135594EA0C0F08BF95EA0C0F1C
:100910003FF43BAF94EA0C0F0AD150EA01347FF464
:1009200034AF95EA0C0F7FF425AF104619462CE73B
:1009300095EA0C0F06D152EA03353FF4FDAE10469E
:10094000194622E750EA410618BF52EA43067FF4EF
:10095000C5AE50EA41047FF40DAF52EA43057FF47F
:10096000EBAE12E74FEA4102B2F1E04324BFB3F528
:10097000001CDCF1FE5C0DD901F0004C4FEAC00216
:100980004CEA5070B2F1004F40EB830008BF20F0FA
:100990000100704711F0804F21D113F13872BCBFB4
:1009A00001F00040704741F480114FEA5252C2F109
:1009B0001802C2F1200C10FA0CF320FA02F018BF52
:1009C00040F001004FEAC1234FEAD32303FA0CFCA5
:1009D00040EA0C0023FA02F34FEA4303CCE77FEA34
:1009E000625307D150EA01331EBF4FF0FE4040F47E
:1009F0004000704701F0004040F0FE4040F400002D
:100A0000704700BF80B584B000AF78600023FB73EF
:100A100016E00F4B1868FB7B7A68D11800234FF063
:100A2000FF3202F061FA4FF47A7002F0A9FDFB7B0D
:100A30002A221946012000F064FCFB7B0133FB7382
:100A4000FB7B042BE5D900BF1037BD4680BD00BF3E
:100A5000FC3D002080B584B000AF78600023FB73BC
:100A60000123BB730023FB731EE0134B186807F1CF
:100A70000D0100234FF0FF3202F036FA4FF47A7086
:100A800002F07EFDFB7B2A221946012000F039FC92
:100A9000FB7B7A6813441A787B7B9A4201D000234F
:100AA000BB73FB7B0133FB73FB7B042BDDD9BB7B6F
:100AB00018461037BD4680BDFC3D002080B582B091
:100AC00000AF0023FB7100F07BFB1D4A00210020DA
:100AD00000F049FC1B48FFF795FF00F071FB1A4A34
:100AE0000021002000F03FFC1648FFF7B3FF03464B
:100AF000012BE8D100F064FB144A0021002000F033
:100B000032FC4FF4FA6003F09DFB5221FF2000F00D
:100B10008BFA0023FB710CE0FB799BB2F03398B2A7
:100B2000FB79084AD35C194600F07EFAFB79013361
:100B3000FB71FB79042BEFD900BF0837BD4680BDA0
:100B4000E4470008EC3D0020F44700080448000892
:100B500080B582B000AF0023BB710023FB7100F0B1
:100B60002FFB1C4A0021002000F0FDFB1DE0FB795B
:100B7000022B10D900F024FB174A0021002000F0BE
:100B8000F2FB00F021FC41F2883002F0F9FC00F0A9
:100B90002BFC0023FB71FB790133FB7100F010FB90
:100BA0000C4A0021002000F0DEFB0C48FFF752FF4A
:100BB0000346012BDBD100F003FB094A0021002092
:100BC00000F0D1FB4FF4FA6002F0DAFC00BF083706
:100BD000BD4680BD1048000820480008EC3D0020BC
:100BE0003048000880B500AFFFF7B2FFFFF766FF9F
:100BF00000BF80BD80B582B000AF0023FB7100F064
:100C0000DFFA234A0021002000F0ADFB214A002139
:100C1000012000F0A8FB204B1868F91D00234FF0BD
:100C2000FF3202F061F94FF47A7002F0A9FCFB790F
:100C3000042B02D0052B23D025E0FFF789FF174BAB
:100C40001B688021184601F08BFA00F0B9FA1448AD
:100C500000F06EFB4FF4FA6002F092FC0F4B1B6841
:100C60008021184601F07CFA00F0AAFA0D4800F045
:100C70005FFB0A4B1B681021184601F071FA02E075
:100C8000FFF7B0FF00BF00BF0837BD4680BD00BF03
:100C90003C48000848480008FC3D0020F43D002086
:100CA000584800086848000880B58AB000AF0023A3
:100CB0007B62012000F044FE00F080FE03467B6270
:100CC0007B6A4FF4A57202FB03F31B0B7B623B1D97
:100CD0007A6A1549184603F033FD3B1D194613483F
:100CE00001F000F97B6A192B13D900F06DFB3B1D55
:100CF0007A6A0F49184603F023FD3B1D19460B483D
:100D000001F0F0F840F6B83002F03AFC00F06CFB6D
:100D100001E000F069FB41F2883002F031FC00BFD5
:100D20002837BD4680BD00BF784800080044004019
:100D30008C48000880B500AF00F0B6FD03F028FB3A
:100D400000F090FA00F012FD00F068F900F020FBCE
:100D500000F0D8FD00F058FBFF2000F091FB4FF4AD
:100D60001651084800F082FF012000F0EFFB02203E
:100D700000F0ECFB032000F0E9FB042000F0E6FBB0
:100D800000BF80BD0044004080B582B002AF01F0DA
:100D9000D1F802461B4B1A6000220121052001F008
:100DA00051FF0246184B1A60002301930123009360
:100DB000002364220021154802F0B8FA00230193B1
:100DC00006230093002364220021114802F0AEFAAA
:100DD00000230193052300930023642200210D4882
:100DE00002F0A4FA00230193042300930023642259
:100DF0000021094802F09AFA02F0F6FB00BFBD4656
:100E000080BD00BFF43D0020FC3D00201D0E000809
:100E1000DD0E0008ED0E0008750F000880B584B0E7
:100E200000AF786000F0DAFC0346002B0CD000F035
:100E3000D5FC0346FB73274B186807F10F0100230D
:100E40004FF47A7201F056FF012000F021FC0346B6
:100E5000002B0FD0204B1B680121184601F080F9B0
:100E600002E00A2002F08CFB012000F011FC034696
:100E7000002BF6D1022000F00BFC0346002B0FD014
:100E8000154B1B680221184601F06AF902E00A209E
:100E900002F076FB022000F0FBFB0346002BF6D1AC
:100EA000032000F0F5FB0346002B0FD00A4B1B6814
:100EB0000421184601F054F902E00A2002F060FB18
:100EC000032000F0E5FB0346002BF6D1642002F07E
:100ED00057FBA7E7FC3D0020F43D002080B582B021
:100EE00000AF7860FFF7E0FEFCE7000080B586B059
:100EF00002AF78600023BB7307F10E031946FF2091
:100F000000F0C0F8BB7B522B02D0FFF7D7FD12E0F8
:100F10000023FB730CE0FB7B9BB2F03398B2FB7BAE
:100F2000114A1344194600F0ADF8FB7B0133FB7303
:100F3000FB7B042BEFD90D4B18684FF47A730093A9
:100F400001230122042101F00DF80246084B1A602A
:100F5000074B1B6803F00403002B01D0FFF74AFE88
:100F6000322002F00DFBE6E7EC3D0020F43D0020CE
:100F7000F83D002080B584B002AF7860254B18683A
:100F80004FF47A73009300230022FB2100F0EAFF64
:100F90000246214B1A60204B1B6803F00103002B13
:100FA00008D0012000F0BEFA1A4B1B680121184638
:100FB00001F0A0F8184B1B6803F00203002B08D0C7
:100FC000022000F0AFFA134B1B680221184601F013
:100FD00091F8114B1B6803F01003002B08D001207F
:100FE00000F076FA0B4B1B681021184601F082F8CE
:100FF000094B1B6803F08003002B07D000F030FA88
:10100000044B1B688021184601F074F8642002F03C
:10101000B7FAB3E7F43D0020F83D002080B500AFFB
:1010200000F0E6FC00BF80BD80B584B000AF034691
:101030000A46FB8013467B71FB881B12DBB203F070
:101040000703FB73FB88BB73FB7B5B005BB263F046
:101050005F035BB27B7300F043FD7B7B184600F0BF
:1010600085FDBB7B184600F067FD7B79184600F0D4
:1010700063FD00F04FFD0F2003F0E4F800BF1037D0
:10108000BD4680BD80B584B000AF03463960FB80AB
:10109000FB881B12DBB203F00703FB73FB88BB73F7
:1010A000FB7B5B005BB263F05F035BB27B7300F0C2
:1010B00017FD7B7B184600F059FDBB7B184600F0FE
:1010C0003BFD00F00DFD7B7B43F00103DBB21846D6
:1010D00000F04CFD00F066FD03461A463B681A70AE
:1010E00000F018FD0F2003F0ADF800BF1037BD462B
:1010F00080BD80B582B000AF03460A46FB7113463F
:10110000BB71FB79002B06D1BB79803BDBB2184663
:1011100000F00EF808E0FB79012B05D1BB79403BCC
:10112000DBB2184600F004F800BF0837BD4680BDAA
:1011300080B582B000AF0346FB71204A1F4B5B694C
:1011400023F4807353611D4A1C4B5B6923F4704385
:1011500053611A49194B5B69FA791209D2B2120329
:1011600013434B61154A154B5B6943F020035361F0
:10117000124A124B5B6923F0200353610F4A0F4B55
:101180005B6923F4704353610C490C4B5B69FA793A
:10119000120313434B61094A084B5B6943F0200378
:1011A0005361064A054B5B6923F02003536101201C
:1011B00003F048F800BF0837BD4680BD0004024078
:1011C00080B500AF0120FFF7B3FF052003F03AF828
:1011D00000BF80BD80B582B000AF0346FB71204ADE
:1011E0001F4B5B6943F4807353611D4A1C4B5B6961
:1011F00023F4704353611A49194B5B69FA79120958
:10120000D2B2120313434B61154A154B5B6943F08D
:1012100020035361124A124B5B6923F02003536190
:101220000F4A0F4B5B6923F4704353610C490C4B1D
:101230005B69FA79120313434B61094A084B5B69F6
:1012400043F020035361064A054B5B6923F02003FA
:101250005361012002F0F6FF00BF0837BD4680BD94
:101260000004024080B500AF1D4A1D4B1B6B43F0CC
:10127000020313631B4A1B4B1B6823F07F4313605D
:10128000184A184B1B6843F0AA431360154A154BC4
:101290005B6923F470435361124A124B1B6823F4B9
:1012A000433313600F4A0F4B1B6843F482331360C0
:1012B0000C4A0C4B5B6923F4907353614FF4FA7042
:1012C00002F0C0FF2820FFF733FF0C20FFF730FFAC
:1012D0000620FFF72DFFFFF773FF00BF80BD00BFA3
:1012E000003802400004024080B582B000AF0346DF
:1012F000FB71FB791846FFF76DFF00BF0837BD464D
:1013000080BD80B582B000AF0346FB710B46BB7158
:1013100013467B71BA79FB7911461846FFF7E9FE4F
:101320007B791846FFF7E0FF00BF0837BD4680BD58
:1013300080B584B000AF78600023FB7309E0FB7BCD
:101340007A6813441B781846FFF7CEFFFB7B013306
:10135000FB73FB7B7A6813441B78002BEFD100BF33
:101360001037BD4680BD80B582B000AF03463A60FD
:10137000FB710B46BB71BA79FB7911461846FFF732
:10138000B8FE3868FFF7D4FF00BF0837BD4680BD00
:1013900080B500AF0A4A0A4B1B6B43F0040313638A
:1013A000084A084B1B6823F440731360054A054B39
:1013B0001B6843F48073136000F016F800BF80BD13
:1013C000003802400008024080B400AF054A054BD7
:1013D0005B6943F01003536100BFBD465DF8047BB9
:1013E000704700BF0008024080B400AF054A054BBB
:1013F0005B6923F01003536100BFBD465DF8047BB9
:10140000704700BF0008024080B500AF0A4A0A4B8F
:101410001B6B43F004031363084A084B1B6823F05B
:1014200040631360054A054B1B6843F080631360FB
:1014300000F006F800BF80BD0038024000080240FE
:1014400080B400AF054A054B5B6923F40053536138
:1014500000BFBD465DF8047B704700BF0008024036
:1014600080B400AF054A054B5B6983F400535361B8
:1014700000BFBD465DF8047B704700BF0008024016
:1014800080B582B000AF0346FB710F4A0E4B1B6B59
:1014900043F0040313630D4A0C4B1B6823F07F7366
:1014A00023F47F331360094A084B1B6843F0AA7387
:1014B00043F4AA331360FB79184600F01DF800BF0F
:1014C0000837BD4680BD00BF00380240000802401A
:1014D00080B483B000AF0346FB710649054B5B69DE
:1014E000FA79520113434B6100BF0C37BD465DF8DA
:1014F000047B70470008024080B483B000AF03460D
:10150000FB710749064B5B69FA795201D2431340DC
:101510004B6100BF0C37BD465DF8047B704700BFD0
:101520000008024080B483B000AF0346FB71064957
:10153000054B5B69FA79520153404B6100BF0C3790
:10154000BD465DF8047B70470008024080B483B05C
:1015500000AF0346FB71FB79042B00F28A8001A2E5
:1015600052F823F079150008DD150008AB150008C6
:101570000F16000841160008414A414B1B6B43F00F
:10158000080313633F4A3F4B1B6823F0300313608B
:101590003C4A3C4BDB6823F03003D360394A394B7B
:1015A000DB6843F01003D36064E0354A344B1B6BB7
:1015B00043F001031363344A334B1B6823F0407339
:1015C0001360314A304BDB6823F04073D3602E4AFE
:1015D0002D4BDB6843F08073D3604BE0284A284BE7
:1015E0001B6B43F001031363274A274B1B6823F44B
:1015F00040031360244A244BDB6823F44003D36088
:10160000214A214BDB6843F48003D36032E01C4A5B
:101610001B4B1B6B43F0040313631C4A1B4B1B68DF
:1016200023F00C031360194A184BDB6823F00C03FA
:10163000D360164A154BDB6843F00403D36019E00E
:101640000F4A0F4B1B6B43F0040313630F4A0F4BFE
:101650001B6823F0030313600C4A0C4BDB6823F078
:101660000303D360094A094BDB6843F00103D360ED
:1016700000E000BF00BF0C37BD465DF8047B70473B
:1016800000380240000C0240000002400008024006
:1016900080B485B000AF0346FB710023FB60FB798B
:1016A000042B2BD801A252F823F000BFC11600086A
:1016B000D9160008CD160008E5160008F116000836
:1016C000154B1B6903F00403FB6018E0134B1B6907
:1016D00003F48053FB6012E0104B1B6903F40063BA
:1016E000FB600CE00E4B1B6903F00203FB6006E09D
:1016F0000B4B1B6903F00103FB6000E000BFFB68BC
:10170000002B0CBF01230023DBB218461437BD4663
:101710005DF8047B704700BF000C024000000240EF
:101720000008024080B500AF054A054B5B6943F0F5
:1017300001035361034B1B68984700BF80BD00BF86
:10174000003C0140103E002080B500AF054A054B2B
:101750005B6943F004035361034B1B68984700BF68
:1017600080BD00BF003C0140083E002080B400AFB7
:10177000174A174B1B6B43F003031363154A154BB2
:101780001B6823F47C431360124A124B1B6843F41A
:10179000A84313600F4A0F4B5B6943F0E0035361AA
:1017A0000D4A0D4B1B6823F03F0313600A4A0A4B96
:1017B000DB6823F03F03D360074A074BDB6843F045
:1017C0001503D36000BFBD465DF8047B704700BFC2
:1017D00000380240000002400004024080B582B0A0
:1017E00000AF00237B710023FB710023BB7100233A
:1017F000FB714CE02A492A4B5B69FA7905320120DA
:1018000000FA02F2D24313404B61012002F01AFDAC
:101810000023BB712BE0234B1B69BA79012101FA2C
:1018200002F21340002B1FD1FB791A4652001344D9
:10183000DAB2BB791344DBB201337B711849184B20
:101840005B69FA790532012000FA02F213434B6119
:1018500000BF144B1B69BA79012101FA02F213404F
:10186000002BF6D07B7916E0BB790133BB71BB79D5
:10187000022BD0D90A490A4B5B69FA79053201205B
:1018800000FA02F213434B61FB790133FB71FB79E0
:10189000022BAFD9002318460837BD4680BD00BFD4
:1018A000000002400004024080B400AF124A124B14
:1018B0001B6843F0010313600F4B00229A600E4A2D
:1018C0000D4B1B6823F0A16323F4803313600A4B94
:1018D0000A4A5A60084B0A4AC3F88420064A064B53
:1018E0001B6823F480231360034B0022DA6000BFDF
:1018F000BD465DF8047B704700380240103000247C
:101900000030002080B400AF0B4A0B4B5B6C43F4FB
:1019100080735364094A094B9B6843F00103936049
:10192000064A064BDB6A23F47003D36200BFBD4650
:101930005DF8047B704700BF003802400020014082
:1019400080B483B000AF0346FB71FB79002B02D05B
:10195000012B0DD019E0164A154B1B6B43F0010308
:101960001363144A134B1B6843F0030313600CE02A
:101970000F4A0F4B1B6B43F0010313630D4A0D4BD2
:101980001B6843F00C03136000BF0B4A0A4B5B6BF0
:1019900023F01F0353630849074B5A6BFB7913432A
:1019A0004B6300BF0C37BD465DF8047B704700BF3A
:1019B00000380240000002400020014080B400AF27
:1019C0000A4A0A4B9B6843F08043936000BF074B71
:1019D0001B6803F00203002BF9D0044BDB6C9BB2B5
:1019E0001846BD465DF8047B704700BF00200140EB
:1019F00080B500AF374A374B1B6B43F002031363CC
:101A0000344A344B1B6C43F400131364324A324B98
:101A10001B6823F4704313602F4A2F4B1B6843F459
:101A2000204313602C4A2C4B5B6843F0C003536087
:101A3000294A294B1B6A23F07F431362264A264B0F
:101A40001B6A43F080631362234A234B1B6A43F0F3
:101A500080431362214A214B1B889BB223F0010370
:101A60009BB213801D4A1D4B9B8B9BB2C3F30E038D
:101A70009BB29383194A194B9B889BB223F03F0377
:101A80009BB29380154A154B9B889BB243F002038F
:101A90009BB29380114A114B9B8B9BB223F47F63C3
:101AA00023F00F039BB293830C4A0C4B9B8B9BB28E
:101AB00043F00A039BB29383084A084B1B889BB2EE
:101AC00043F001039BB21380642002F0BBFB00BF14
:101AD00080BD00BF003802400004024000540040B6
:101AE00080B400AF0A4A0A4B1B889BB243F4807350
:101AF0009BB2138000BF064B9B8A9BB203F001038D
:101B0000002BF8D000BFBD465DF8047B704700BFD6
:101B10000054004080B400AF064A064B1B889BB2BD
:101B200043F400739BB2138000BFBD465DF8047B95
:101B3000704700BF0054004080B483B000AF03463C
:101B4000FB71094BFA7992B21A8200BF064B9B8A4D
:101B50009BB203F08003002BF8D000BF0C37BD46CA
:101B60005DF8047B704700BF0054004080B483B030
:101B700000AF0346FB710A4BFA7992B21A8200BF9A
:101B8000074B9B8A9BB203F00203002BF8D0044B57
:101B90001B8B00BF0C37BD465DF8047B704700BF50
:101BA0000054004080B400AF00BF084B9B8A9BB23A
:101BB00003F04003002BF8D0044B1B8A9BB2DBB22E
:101BC0001846BD465DF8047B704700BF00540040D6
:101BD00080B500AF00F0A3F900BF80BD80B400AFB6
:101BE000124A124B1B8A9BB223F002039BB2138250
:101BF0000F4B1B78DBB2002B06D10C4B00225A6234
:101C00000B4B01221A700BE0094B1B78DBB2012B46
:101C100006D1064B5B6B074A1360054B00221A7016
:101C200000BFBD465DF8047B704700BF0000014067
:101C3000380000203400002080B500AF094B1B8A1B
:101C40009BB203F00103002B0AD0064A054B1B8A06
:101C50009BB223F001039BB21382034B1B6898478E
:101C600000BF80BD00040040143E0020B0B586B027
:101C700000AFF860B960FB68874A93423CD1874A5D
:101C8000864B1B6B43F001031363854A844B1B682F
:101C900023F030031360824A814B1B6823F0C0039A
:101CA00013607F4A7E4B1B6843F0200313607C4A1D
:101CB0007B4B1B6843F080031360794A784B1B6AA7
:101CC00023F470631362764A754B1B6A23F47043E6
:101CD0001362734A724B1B6A43F4E0631362704AE7
:101CE0006F4B1B6A43F4E04313626C4A6B4B1B6CF3
:101CF00043F40033136480E0FB686A4A93423CD1AA
:101D0000664A664B1B6B43F001031363644A644BE2
:101D10001B6823F440231360614A614B1B6823F462
:101D2000401313605E4A5E4B1B6843F4002313604C
:101D30005B4A5B4B1B6843F400131360584A584BD3
:101D40005B6A23F0F0035362554A554B5B6A23F4F8
:101D500070635362524A524B5B6A43F070035362A2
:101D60004F4A4F4B5B6A43F4E06353624B4A4B4B21
:101D70005B6C43F0100353643FE0FB684A4A9342B4
:101D80003BD1464A454B1B6B43F004031363444A63
:101D9000434B1B6823F440531360414A404B1B687C
:101DA00023F4404313603E4A3D4B1B6843F4005309
:101DB00013603B4A3A4B1B6843F400431360384AB4
:101DC000374B1B6A23F070631362354A344B1B6A2E
:101DD00023F070431362324A314B1B6A43F00063B5
:101DE00013622F4A2E4B1B6A43F0004313622B4AA7
:101DF0002A4B5B6C43F0200353642C4B1B68184642
:101E0000FEF728FB04460D46B868FEF723FB4FF0AB
:101E10000002274BFEF794FB02460B46204629465C
:101E2000FEF7B8FC03460C4618462146FEF79AFD1D
:101E300003467B61D7ED057AFCEEE77AC7ED017AC0
:101E4000BB887B827B8A07EE903AF8EEE77A97EDC3
:101E5000057A77EE677AB3EE007A67EE877AFCEE62
:101E6000E77AC7ED017A3B797B747B8A1B019AB2D2
:101E70007B7C9BB213449AB2FB681A81FB689B89F6
:101E80009BB243F4005343F00C039AB2FB689A816F
:101E900000BF1837BD46B0BD0044004000380240C6
:101EA0000000024000100140001401400400002026
:101EB0000000304080B483B000AF78600B46FB7008
:101EC00000BF7B681B889BB203F08003002BF8D017
:101ED000FB789AB27B689A8000BF0C37BD465DF8EC
:101EE000047B704780B584B000AF78603960002310
:101EF000FB600AE03A68FB6813441B78194678686F
:101F0000FFF7D8FFFB680133FB603A68FB681344B6
:101F10001B78002BEED100BF1037BD4680BD80B5C9
:101F200000AF01F0E5FF0346012B01D000F0DCFD1E
:101F300000BF80BD80B582B000AF182000F0BCF9B2
:101F400078607B68002B07D07B6800221A607B6872
:101F50000433184600F086FB7B6818460837BD46F8
:101F600080BD000080B590B000AFF860B9607A60C5
:101F70003B60FB687B630023BB6300233B63FB6820
:101F8000002B09D14FF0500383F31188BFF36F8FFB
:101F9000BFF34F8F3B62FEE7BB6803F07F43002B2C
:101FA00009D04FF0500383F31188BFF36F8FBFF355
:101FB0004F8FFB61FEE7BB68002B09D14FF0500348
:101FC00083F31188BFF36F8FBFF34F8FBB61FEE7C1
:101FD00001F08EFF0346002B02D1BB6C002B01D118
:101FE000012300E00023002B09D14FF0500383F3BD
:101FF0001188BFF36F8FBFF34F8F7B61FEE701F056
:1020000039FB7B6B1B68FB623A68B968F86A00F0C1
:1020100030F9B862BB6A002B0ED0FB6AFB63002369
:10202000BB647B68002B26D07B6B1A68BB68DB43E4
:102030001A407B6B1A601EE0BB6C002B02D1FB6A5E
:10204000FB6318E07B68002B03D0BB6B43F080730D
:10205000BB633B68002B03D0BB6B43F08063BB6367
:102060007B6B181DBA68BB6B1343BA6C194601F041
:10207000E5FC0023FB6301F00BFB7862BB6C002BDB
:1020800031D07B6A002B07D1194B4FF080521A6078
:10209000BFF34F8FBFF36F8F02F042F8F863FB6B13
:1020A00003F00073002B1AD100F092FC7B6B1B68CD
:1020B000FB633A68B968F86B00F0DBF80346002B65
:1020C00009D07B68002B06D07B6B1A68BB68DB43AA
:1020D0001A407B6B1A6000F0A9FC00233B63FB6B8A
:1020E00023F07F43FB63FB6B18464037BD4680BD42
:1020F00004ED00E080B586B000AF786039607B68A1
:102100007B617B68002B09D14FF0500383F311886A
:10211000BFF36F8FBFF34F8FFB60FEE73B6803F0A9
:102120007F43002B09D04FF0500383F31188BFF396
:102130006F8FBFF34F8FBB60FEE700F049FC7B69F8
:102140001B683B617B691A683B68DB431A407B690B
:102150001A6000F06BFC3B6918461837BD4680BD1D
:1021600080B58EB000AF7860396000233B637B6838
:10217000BB620023FB627B68002B09D14FF0500348
:1021800083F31188BFF36F8FBFF34F8F3B61FEE77F
:102190003B6803F07F43002B09D04FF0500383F3DB
:1021A0001188BFF36F8FBFF34F8FFB60FEE7BB6AF1
:1021B00004337B627B6A08333B6201F05BFA7B6A23
:1021C000DB687B63BB6A1A683B681A43BB6A1A60A8
:1021D0003CE07B6B5B68FB617B6B1B68BB61002336
:1021E000FB62BB6903F07F437B61BB6923F07F43E4
:1021F000BB617B6903F08063002B08D1BB6A1A685E
:10220000BB691340002B0BD00123FB6208E0BB6AC3
:102210001A68BB691A40BB699A4201D10123FB626B
:10222000FB6A002B10D07B6903F08073002B03D076
:102230003A6BBB6913433B63BB6A1B6843F0007393
:102240001946786B01F096FCFB697B637A6B3B6AFD
:102250009A42BED1BB6A1A683B6BDB431A40BB6A29
:102260001A6001F015FABB6A1B6818463837BD467C
:1022700080BD80B487B000AFF860B9607A60002399
:102280007B617B68002B07D1FA68BB681340002B89
:102290000AD001237B6107E0FA68BB681A40BB687B
:1022A0009A4201D101237B617B6918461C37BD46E8
:1022B0005DF8047B7047000080B58AB000AF78609D
:1022C0000023FB6101F0D6F9574B1B68002B01D1AD
:1022D00000F00CF9554B1A687B681340002B40F056
:1022E0008C807B68002B1CD008227B6813447B60A9
:1022F0007B6803F00703002B13D07B6823F00703F0
:1023000008337B607B6803F00703002B09D04FF094
:10231000500383F31188BFF36F8FBFF34F8F7B613F
:10232000FEE77B68002B68D0414B1B687A689A42B5
:1023300063D8404B3B623F4B1B687B6204E07B6A87
:102340003B627B6A1B687B627B6A5A687B689A4245
:1023500003D27B6A1B68002BF1D1334B1B687A6A6E
:102360009A424AD03B6A1B6808221344FB617B6A8D
:102370001A683B6A1A607B6A5A687B68D21A08231B
:102380005B009A421ED97A6A7B681344BB61BB69C1
:1023900003F00703002B09D04FF0500383F311889B
:1023A000BFF36F8FBFF34F8F3B61FEE77B6A5A68C5
:1023B0007B68D21ABB695A607B6A7A685A60B869CE
:1023C00000F0F6F81A4B1A687B6A5B68D31A184A51
:1023D0001360174B1A68184B1B689A4203D2144BB0
:1023E0001B68154A13607B6A5A68104B1B681A43B6
:1023F0007B6A5A607B6A00221A6001F049F9FB6926
:1024000003F00703002B09D04FF0500383F311882A
:10241000BFF36F8FBFF34F8FFB60FEE7FB6918467A
:102420002837BD4680BD00BF443C0020503C002002
:10243000483C00203C3C00204C3C002080B586B04D
:1024400000AF78607B687B617B68002B46D00823F7
:102450005B427A6913447B617B693B613B695A68E3
:10246000204B1B681340002B09D14FF0500383F31E
:102470001188BFF36F8FBFF34F8FFB60FEE73B699F
:102480001B68002B09D04FF0500383F31188BFF372
:102490006F8FBFF34F8FBB60FEE73B695A68114BEC
:1024A0001B681340002B19D03B691B68002B15D10A
:1024B0003B695A680B4B1B68DB431A403B695A6007
:1024C00001F0D8F83B695A68074B1B681344064A69
:1024D0001360386900F06CF801F0DAF800BF1837C3
:1024E000BD4680BD503C0020483C002080B485B0F3
:1024F00000AF4FF47053BB60274BFB60FB6803F0E9
:102500000703002B0CD0FB680733FB60FB6823F04C
:102510000703FB60BA68FB68D31A1F4A1344BB6009
:10252000FB687B601D4A7B6813601C4B00225A606D
:102530007A68BB681344FB600822FB689B1AFB6047
:10254000FB6823F00703FB60FB68154A1360144B1C
:102550001B6800225A60124B1B6800221A607B68BD
:102560003B603B68FA68D21A3B685A600C4B1A68A9
:102570003B681A603B685B680A4A13603B685B68AB
:10258000094A1360094B4FF000421A6000BF14372C
:10259000BD465DF8047B70473C0000203C3C0020B9
:1025A000443C00204C3C0020483C0020503C002093
:1025B00080B485B000AF7860284BFB6002E0FB6818
:1025C0001B68FB60FB681A687B689A42F7D3FB685C
:1025D000BB60FB685B68BA681A447B689A4208D1A2
:1025E000FB685A687B685B681A44FB685A60FB6842
:1025F0007B607B68BB607B685B68BA681A44FB6879
:102600001B689A4218D1FB681A68154B1B689A42DE
:102610000DD07B685A68FB681B685B681A447B684E
:102620005A60FB681B681A687B681A6008E00C4BEC
:102630001A687B681A6003E0FB681A687B681A6096
:10264000FA687B689A4202D0FB687A681A6000BF19
:102650001437BD465DF8047B704700BF3C3C00204A
:10266000443C002080B483B000AF78607B6803F105
:1026700008027B685A607B684FF0FF329A607B6883
:1026800003F108027B68DA607B6803F108027B686B
:102690001A617B6800221A6000BF0C37BD465DF8E6
:1026A000047B704780B483B000AF78607B68002201
:1026B0001A6100BF0C37BD465DF8047B704780B4DB
:1026C00085B000AF786039607B685B68FB603B6811
:1026D000FA685A60FB689A683B689A60FB689B6876
:1026E0003A685A60FB683A689A603B687A681A618F
:1026F0007B681B685A1C7B681A6000BF1437BD4694
:102700005DF8047B704780B485B000AF78603960B5
:102710003B681B68BB60BB68B3F1FF3F03D17B68BC
:102720001B69FB600CE07B680833FB6002E0FB6820
:102730005B68FB60FB685B681A68BB689A42F6D905
:10274000FB685A683B685A603B685B683A689A6005
:102750003B68FA689A60FB683A685A603B687A6836
:102760001A617B681B685A1C7B681A6000BF1437AB
:10277000BD465DF8047B704780B485B000AF7860DB
:102780007B681B69FB607B685B687A6892689A600B
:102790007B689B687A6852685A60FB685A687B68F5
:1027A0009A4203D17B689A68FB685A607B68002272
:1027B0001A61FB681B685A1EFB681A60FB681B687D
:1027C00018461437BD465DF8047B704780B485B069
:1027D00000AFF860B9607A60FB68043BFB60FB689F
:1027E0004FF080721A60FB68043BFB60BB6823F00B
:1027F0000102FB681A60FB68043BFB600C4AFB6843
:102800001A60FB68143BFB607A68FB681A60FB681F
:10281000043BFB60FB686FF002021A60FB68203B20
:10282000FB60FB6818461437BD465DF8047B7047B3
:102830003528000880B483B000AF0C4B1B68B3F19F
:10284000FF3F09D04FF0500383F31188BFF36F8F20
:10285000BFF34F8F7B60FEE74FF0500383F3118887
:10286000BFF36F8FBFF34F8F3B60FEE70000002088
:10287000074B19680868B0E8F04F80F30988BFF388
:102880006F8F4FF0000080F311887047AFF3008026
:102890005C3C002000BF00BF06480068006880F371
:1028A000088862B661B6BFF34F8FBFF36F8F00DF4A
:1028B00000BF00BF08ED00E080B586B000AF3B4B25
:1028C0001B683B4A934209D14FF0500383F31188B0
:1028D000BFF36F8FBFF34F8F3B61FEE7334B1B6836
:1028E000344A934209D14FF0500383F31188BFF368
:1028F0006F8FBFF34F8FFB60FEE72F4B7B617B69D0
:102900001B78DBB2BB607B69FF221A707B691B7886
:10291000DBB2FB71FB79DBB203F05003DAB2274B79
:102920001A70274B07221A6009E0254B1B68013BF0
:10293000234A1360FB79DBB25B00DBB2FB71FB79EE
:10294000DBB203F08003802BEFD01D4B1B681B0212
:102950001B4A13601A4B1B6803F4E063184A1360A8
:10296000BB68DAB27B691A70164A164B1B6843F4CF
:1029700070031360134A134B1B6843F070431360DA
:1029800000F0D2F8104B00221A6000F0E9F80F4A6C
:102990000E4B1B6843F040431360FFF77DFFFFF7CA
:1029A00049FF002318461837BD4680BD00ED00E002
:1029B00071C20F4170C20F4100E400E0543C00209E
:1029C000583C002020ED00E00000002034EF00E043
:1029D00080B483B000AF4FF0500383F31188BFF38E
:1029E0006F8FBFF34F8F7B600E4B1B6801330D4A17
:1029F00013600C4B1B68012B0ED10B4B1B68DBB219
:102A0000002B09D04FF0500383F31188BFF36F8F71
:102A1000BFF34F8F3B60FEE700BF0C37BD465DF84C
:102A2000047B70470000002004ED00E080B483B018
:102A300000AF114B1B68002B09D14FF0500383F3FB
:102A40001188BFF36F8FBFF34F8F7B60FEE70A4B98
:102A50001B68013B084A1360074B1B68002B04D11D
:102A600000233B603B6883F3118800BF0C37BD46F1
:102A70005DF8047B704700BF0000002000000000EC
:102A8000EFF30980BFF36F8F154B1A681EF0100F1C
:102A900008BF20ED108A20E9F04F10604DF8043D8A
:102AA0004FF0500080F31188BFF34F8FBFF36F8F4B
:102AB00000F046FF4FF0000080F3118808BC196851
:102AC0000868B0E8F04F1EF0100F08BFB0EC108A95
:102AD00080F30988BFF36F8F704700BFAFF30080AA
:102AE0005C3C002000BF00BF80B582B000AF4FF05B
:102AF000500383F31188BFF36F8FBFF34F8F7B6059
:102B000000F062FE0346002B03D0064B4FF08052CC
:102B10001A6000233B603B6883F3118800BF0837CD
:102B2000BD4680BD04ED00E080B400AF084A094B0B
:102B30001B680949A1FB03139B09013B1360074B69
:102B400007221A6000BFBD465DF8047B704700BFD6
:102B500014E000E004000020D34D621010E000E01B
:102B6000DFF80C00016841F470010160704700BF9C
:102B700088ED00E080B584B000AF786039607B6894
:102B8000FB60FB68002B09D14FF0500383F31188E1
:102B9000BFF36F8FBFF34F8FBB60FEE7FFF718FFE8
:102BA000FB681A68FB68DB6BF968096C01FB03F3CF
:102BB0001A44FB685A60FB6800229A63FB681A6833
:102BC000FB689A60FB681A68FB68DB6B013BF9687D
:102BD000096C01FB03F31A44FB68DA60FB68FF220F
:102BE00083F84420FB68FF2283F845203B68002BD4
:102BF00014D1FB681B69002B1AD0FB6810331846F0
:102C000000F056FF0346002B12D00D4B4FF08052C0
:102C10001A60BFF34F8FBFF36F8F09E0FB6810336B
:102C20001846FFF71FFDFB6824331846FFF71AFD0F
:102C3000FFF7FCFE012318461037BD4680BD00BFDC
:102C400004ED00E080B58AB002AFF860B9601346C9
:102C5000FB71FB68002B09D14FF0500383F31188FF
:102C6000BFF36F8FBFF34F8F3B61FEE7BB68002B55
:102C700002D10023FB6104E0FB68BA6802FB03F3A6
:102C8000FB61FB6948331846FFF716FBB861BB6967
:102C9000002B0BD0BB6948337B61FA79BB69009389
:102CA00013467A69B968F86800F005F8BB691846F8
:102CB0002037BD4680BD80B584B000AFF860B960F4
:102CC0007A60FB70BB68002B03D1BB69BA691A60DC
:102CD00002E0BB697A681A60BB69FA68DA63BB69AB
:102CE000BA681A640121B869FFF744FF00BF1037C2
:102CF000BD4680BD80B58EB000AFF860B9607A6027
:102D00003B6000237B63FB683B633B6B002B09D17B
:102D10004FF0500383F31188BFF36F8FBFF34F8FD2
:102D2000BB62FEE7BB68002B03D13B6B1B6C002B27
:102D300001D1012300E00023002B09D14FF0500303
:102D400083F31188BFF36F8FBFF34F8F7B62FEE772
:102D50003B68022B03D13B6BDB6B012B01D10123C1
:102D600000E00023002B09D14FF0500383F31188BA
:102D7000BFF36F8FBFF34F8F3B62FEE701F0B8F8F0
:102D80000346002B02D17B68002B01D1012300E018
:102D90000023002B09D14FF0500383F31188BFF3B8
:102DA0006F8FBFF34F8FFB61FEE7FFF711FE3B6BA9
:102DB0009A6B3B6BDB6B9A4202D33B68022B29D1A7
:102DC0003A68B968386B00F0A1F9F8623B6B5B6A4E
:102DD000002B10D03B6B2433184600F069FE0346ED
:102DE000002B13D03F4B4FF080521A60BFF34F8F30
:102DF000BFF36F8F0AE0FB6A002B07D0394B4FF00F
:102E000080521A60BFF34F8FBFF36F8FFFF70EFE34
:102E1000012363E07B68002B03D1FFF707FE00234B
:102E20005CE07B6B002B06D107F11403184600F021
:102E300007FF01237B63FFF7F9FD00F01BFCFFF7A1
:102E4000C7FD3B6B93F844305BB2B3F1FF3F03D156
:102E50003B6B002283F844203B6B93F845305BB218
:102E6000B3F1FF3F03D13B6B002283F84520FFF70E
:102E7000DDFD3A1D07F114031146184600F004FF6A
:102E80000346002B24D1386B00F038FA0346002BA0
:102E900018D03B6B10337A681146184600F0AAFD33
:102EA000386B00F0C3F900F0F3FB0346002B7FF40E
:102EB0007CAF0C4B4FF080521A60BFF34F8FBFF3C3
:102EC0006F8F72E7386B00F0B1F900F0E1FB6CE74F
:102ED000386B00F0ABF900F0DBFB00231846383705
:102EE000BD4680BD04ED00E080B58EB000AFF86057
:102EF000B9607A603B6000237B63FB683B633B6B9C
:102F0000002B09D14FF0500383F31188BFF36F8F6B
:102F1000BFF34F8F7B62FEE7BB68002B03D13B6B97
:102F20001B6C002B01D1012300E00023002B09D1F1
:102F30004FF0500383F31188BFF36F8FBFF34F8FB0
:102F40003B62FEE700F0D4FF0346002B02D17B6812
:102F5000002B01D1012300E00023002B09D14FF009
:102F6000500383F31188BFF36F8FBFF34F8FFB6163
:102F7000FEE7FFF72DFD3B6B9B6BFB62FB6A002BB3
:102F800046D03B6BDB68BB62B968386B00F028F950
:102F90003B68002B21D1FB6A5A1E3B6B9A633B6B4B
:102FA0001B68002B04D101F0D3F802463B6B5A603A
:102FB0003B6B1B69002B27D03B6B1033184600F08E
:102FC00077FD0346002B1FD04F4B4FF080521A6005
:102FD000BFF34F8FBFF36F8F16E03B6BBA6ADA60B7
:102FE0003B6B5B6A002B0FD03B6B2433184600F021
:102FF0005FFD0346002B07D0434B4FF080521A6011
:10300000BFF34F8FBFF36F8FFFF710FD012377E002
:103010007B68002B03D1FFF709FD002370E07B6B79
:10302000002B06D107F11403184600F009FE012316
:103030007B63FFF7FBFC00F01DFBFFF7C9FC3B6B5C
:1030400093F844305BB2B3F1FF3F03D13B6B0022F6
:1030500083F844203B6B93F845305BB2B3F1FF3FFC
:1030600003D13B6B002283F84520FFF7DFFC3A1DBC
:1030700007F114031146184600F006FE0346002B24
:1030800031D1386B00F024F90346002B25D03B6B7F
:103090001B68002B08D1FFF79BFC3B6B5B68184655
:1030A00000F044FFFFF7C2FC3B6B24337A68114603
:1030B000184600F09FFC386B00F0B8F800F0E8FA12
:1030C0000346002B7FF455AF0F4B4FF080521A6030
:1030D000BFF34F8FBFF36F8F4BE7386B00F0A6F84D
:1030E00000F0D6FA45E7386B00F0A0F800F0D0FA0F
:1030F000386B00F0EDF80346002B3FF43AAF0023A5
:1031000018463837BD4680BD04ED00E080B586B076
:1031100000AFF860B9607A6000237B61FB689B6B4D
:103120003B61FB681B6C002B0DD1FB681B68002BFF
:103130004DD1FB685B68184600F06EFF7861FB6854
:1031400000225A6043E07B68002B19D1FB68986825
:10315000FB681B6C1A46B96801F02CFBFB689A6887
:10316000FB681B6C1A44FB689A60FB689A68FB68F2
:103170005B689A422BD3FB681A68FB689A6026E06A
:10318000FB68D868FB681B6C1A46B96801F012FB33
:10319000FB68DA68FB681B6C5B421A44FB68DA6008
:1031A000FB68DA68FB681B689A4207D2FB685A68BA
:1031B000FB681B6C5B421A44FB68DA607B68022B7D
:1031C00005D13B69002B02D03B69013B3B613B6968
:1031D0005A1CFB689A637B6918461837BD4680BD48
:1031E00080B582B000AF786039607B681B6C002BC3
:1031F00018D07B68DA687B681B6C1A447B68DA60DD
:103200007B68DA687B685B689A4203D37B681A68DC
:103210007B68DA607B68D9687B681B6C1A46386803
:1032200001F0C8FA00BF0837BD4680BD80B584B044
:1032300000AF7860FFF7CCFB7B6893F84530FB73F9
:1032400011E07B685B6A002B12D07B682433184640
:1032500000F02EFC0346002B01D000F073FDFB7B39
:10326000013BDBB2FB7397F90F30002BE9DC00E088
:1032700000BF7B68FF2283F84520FFF7D7FBFFF7ED
:10328000A7FB7B6893F84430BB7311E07B681B6934
:10329000002B12D07B681033184600F009FC03465F
:1032A000002B01D000F04EFDBB7B013BDBB2BB73BA
:1032B00097F90E30002BE9DC00E000BF7B68FF22AD
:1032C00083F84420FFF7B2FB00BF1037BD4680BD36
:1032D00080B584B000AF7860FFF77AFB7B689B6BAA
:1032E000002B02D10123FB6001E00023FB60FFF70C
:1032F0009DFBFB6818461037BD4680BD80B584B085
:1033000000AF7860FFF764FB7B689A6B7B68DB6BD0
:103310009A4202D10123FB6001E00023FB60FFF72A
:1033200085FBFB6818461037BD4680BD80B58CB064
:1033300004AFF860B9603B601346FB80FB889B00DC
:103340001846FEF7B9FF78617B69002B0ED0782014
:10335000FEF7B2FFF861FB69002B03D0FB697A69C5
:103360001A6305E07869FFF769F801E00023FB6163
:10337000FB69002B13D0FA8800230393FB690293A7
:10338000FB6A0193BB6A00933B68B968F86800F078
:103390000EF8F86900F08AF80123BB6102E04FF0F3
:1033A000FF33BB61BB6918462037BD4680BD80B581
:1033B00088B000AFF860B9607A603B603B6B1A6B15
:1033C0007B6803F18043013B9B001344BB61BB69F5
:1033D00023F00703BB61BB6903F00703002B09D08F
:1033E0004FF0500383F31188BFF36F8FBFF34F8FFC
:1033F0007B61FEE70023FB6112E0BA68FB691344BE
:1034000019783A6BFB69134434330A461A70BA6868
:10341000FB6913441B78002B06D0FB690133FB6169
:10342000FB69312BE9D900E000BF3B6B002283F838
:103430006520BB6A0B2B01D90B23BB623B6BBA6ABD
:10344000DA623B6BBA6A9A663B6B0022DA663B6BC8
:1034500004331846FFF726F93B6B18331846FFF77D
:1034600021F93B6B3A6B1A61BB6AC3F10C023B6BEF
:103470009A613B6B3A6B5A623B6B00221A673B6B5B
:10348000002283F874203A68F968B869FFF79EF95A
:1034900002463B6B1A60FB6A002B02D0FB6A3A6B58
:1034A0001A6000BF2037BD4680BD000080B582B0E5
:1034B00000AF7860FFF78CFA2A4B1B680133294A6A
:1034C0001360294B1B68002B09D1274A7B681360C6
:1034D000244B1B68012B10D100F058FC0DE0234B4E
:1034E0001B68002B09D1204B1B68DA6A7B68DB6AFA
:1034F0009A4202D81C4A7B6813601D4B1B6801333B
:103500001B4A13607B68DB6A01229A40194B1B68D7
:103510001343184A13607B68DA6A13469B0013440E
:103520009B00154A1A447B68043319461046FFF77E
:10353000C6F8FFF77BFA0D4B1B68002B0ED00A4B29
:103540001B68DA6A7B68DB6A9A4207D20B4B4FF042
:1035500080521A60BFF34F8FBFF36F8F00BF0837E1
:10356000BD4680BDC03D00205C3C0020CC3D00201D
:10357000DC3D0020C83D0020603C002004ED00E060
:1035800080B584B000AF78600023FB607B68002BBF
:1035900016D0134B1B68002B09D04FF0500383F358
:1035A0001188BFF36F8FBFF34F8FBB60FEE700F052
:1035B00061F80021786800F0DFFD00F069F8F8603C
:1035C000FB68002B07D1074B4FF080521A60BFF306
:1035D0004F8FBFF36F8F00BF1037BD4680BD00BF58
:1035E000E83D002004ED00E080B586B002AF1B4B43
:1035F0000193002300930023802219491948FFF703
:1036000095FEF860FB68012B15D14FF0500383F352
:103610001188BFF36F8FBFF34F8FBB60124B4FF01A
:10362000FF321A60114B01221A60114B00221A60FE
:10363000FFF742F90DE0FB68B3F1FF3F09D14FF00E
:10364000500383F31188BFF36F8FBFF34F8F7B60FD
:10365000FEE700BF1037BD4680BD00BFE43D00203F
:10366000AC4800085D3D0008E03D0020CC3D002056
:10367000C43D002080B400AF044B1B680133034AF3
:10368000136000BFBD465DF8047B7047E83D002035
:1036900080B584B000AF0023FB600023BB60414BCA
:1036A0001B68002B09D14FF0500383F31188BFF33F
:1036B0006F8FBFF34F8F3B60FEE7FFF789F9394B00
:1036C0001B68013B374A1360364B1B68002B61D1E6
:1036D000354B1B68002B5DD02EE0344BDB68DB687C
:1036E000FB60FB6818331846FFF746F8FB680433A5
:1036F0001846FFF741F8FB68DB6A01229A402C4B21
:103700001B6813432A4A1360FB68DA6A13469B005E
:1037100013449B00274A1A44FB6804331946104699
:10372000FEF7CDFFFB68DA6A234B1B68DB6A9A421F
:1037300002D3224B01221A601C4B1B68002BCCD1F8
:10374000FB68002B01D000F0ADFB1D4B1B687B60BC
:103750007B68002B10D000F037F80346002B02D016
:10376000164B01221A607B68013B7B607B68002B53
:10377000F1D1134B00221A60104B1B68002B09D0AB
:103780000123BB600F4B4FF080521A60BFF34F8F85
:10379000BFF36F8FFFF74AF9BB6818461037BD4675
:1037A00080BD00BFE83D0020C03D0020803D0020DE
:1037B000C83D0020603C00205C3C0020D43D00203F
:1037C000D03D002004ED00E080B586B000AF0023BE
:1037D0007B61504B1B68002B40F08C804E4B1B686C
:1037E00001333B614C4A3B6913603B69002B1FD19D
:1037F0004A4B1B681B68002B09D04FF0500383F322
:103800001188BFF36F8FBFF34F8F3B60FEE7434BD1
:103810001B68FB60424B1B68404A1360404AFB68D0
:103820001360404B1B6801333E4A136000F03AFBC3
:103830003D4B1B683A699A424DD3384B1B681B6855
:10384000002B01D1012300E00023002B04D0364BD4
:103850004FF0FF321A603EE0304B1B68DB68DB68DC
:10386000BB60BB685B687B603A697B689A4203D245
:103870002D4A7B6813602EE0BB6804331846FEF7C0
:103880007BFFBB689B6A002B04D0BB6818331846CB
:10389000FEF772FFBB68DB6A01229A40234B1B686C
:1038A0001343224A1360BB68DA6A13469B00134431
:1038B0009B001F4A1A44BB68043319461046FEF7A2
:1038C000FEFEBB68DA6A1B4B1B68DB6A9A42B4D304
:1038D00001237B61B1E7174B1B68DA6A1449134671
:1038E0009B0013449B000B441B68012B07D9012349
:1038F0007B6104E0104B1B6801330F4A13600F4BD0
:103900001B68002B01D001237B617B6918461837A7
:10391000BD4680BDE83D0020C43D0020783D00202C
:103920007C3D0020D83D0020E03D0020C83D002027
:10393000603C00205C3C0020D03D0020D43D0020B5
:1039400080B487B000AF264B1B68002B03D0254BFB
:1039500001221A603EE0234B00221A60224B1B68B2
:10396000FB60FB68B3FA83F3FB72FB7AC3F11F03BE
:103970007B611E497A6913469B0013449B000B44EC
:103980001B68002B09D14FF0500383F31188BFF35C
:103990006F8FBFF34F8F7B60FEE77A6913469B0002
:1039A00013449B00114A13443B613B695B685A68AE
:1039B0003B695A603B695A683B6908339A4204D1B3
:1039C0003B695B685A683B695A603B695B68DB68C6
:1039D000074A136000BF1C37BD465DF8047B704783
:1039E000E83D0020D43D0020C83D0020603C002080
:1039F0005C3C002080B584B000AF786039607B68A3
:103A0000002B09D14FF0500383F31188BFF36F8F60
:103A1000BFF34F8FFB60FEE7074B1B681833194657
:103A20007868FEF770FE0121386800F0A5FB00BF42
:103A30001037BD4680BD00BF5C3C002080B586B01D
:103A400000AFF860B9607A60FB68002B09D14FF0D5
:103A5000500383F31188BFF36F8FBFF34F8F7B61E8
:103A6000FEE7114B1B68002B09D14FF0500383F385
:103A70001188BFF36F8FBFF34F8F3B61FEE70B4B96
:103A80001B68BA6842F000429A61084B1B68183301
:103A90001946F868FEF713FE0121786800F06CFB08
:103AA00000BF1837BD4680BDE83D00205C3C0020CB
:103AB00080B586B000AF78607B68DB68DB683B610F
:103AC0003B69002B09D14FF0500383F31188BFF3FA
:103AD0006F8FBFF34F8FFB60FEE73B6918331846CB
:103AE000FEF74AFE1D4B1B68002B1CD13B690433BB
:103AF0001846FEF741FE3B69DB6A01229A40184BEB
:103B00001B681343164A13603B69DA6A13469B002D
:103B100013449B00134A1A443B6904331946104668
:103B2000FEF7CDFD05E03B69183319460E48FEF758
:103B3000C6FD3B69DA6A0D4B1B68DB6A9A4205D900
:103B400001237B610A4B01221A6001E000237B61A3
:103B50007B6918461837BD4680BD00BFE83D002090
:103B6000C83D0020603C0020803D00205C3C0020DF
:103B7000D43D002080B586B000AF786039602B4B13
:103B80001B68002B09D14FF0500383F31188BFF35A
:103B90006F8FBFF34F8FFB60FEE73B6843F000423F
:103BA0007B681A607B68DB683B613B69002B09D14D
:103BB0004FF0500383F31188BFF36F8FBFF34F8F24
:103BC000BB60FEE77868FEF7D7FD3B690433184613
:103BD000FEF7D2FD3B69DB6A01229A40144B1B6859
:103BE0001343134A13603B69DA6A13469B0013447C
:103BF0009B00104A1A443B69043319461046FEF7ED
:103C00005EFD3B69DA6A0C4B1B68DB6A9A4205D998
:103C100001237B61094B01221A6001E000237B61D3
:103C20007B6918461837BD4680BD00BFE83D0020BF
:103C3000C83D0020603C00205C3C0020D43D0020BA
:103C400080B485B000AF78607B68002B09D14FF05D
:103C5000500383F31188BFF36F8FBFF34F8FFB6067
:103C6000FEE7074B1A687B681A60064B1A687B6888
:103C70005A6000BF1437BD465DF8047B704700BF33
:103C8000D83D0020C43D002080B586B000AF7860EC
:103C900039607B68002B09D14FF0500383F3118802
:103CA000BFF36F8FBFF34F8FFB60FEE73B68002BC6
:103CB00009D14FF0500383F31188BFF36F8FBFF327
:103CC0004F8FBB60FEE7FEF783FE1C4B1B683B611A
:103CD0003B681B68B3F1FF3F02D100237B6126E004
:103CE0007B681A68164B1B689A4207D07B685A6833
:103CF0003B699A4202D801237B6118E07B685B68CC
:103D00003A69D21A3B681B689A420ED23B681A681D
:103D10007B6859683B69CB1A1A443B681A6078681B
:103D2000FFF78EFF00237B6101E001237B61FEF73B
:103D30007DFE7B6918461837BD4680BDC43D002016
:103D4000D83D002080B400AF034B01221A6000BFB1
:103D5000BD465DF8047B7047D43D002080B582B03D
:103D600000AF786000F052F8064B1B68012BF9D9C0
:103D7000054B4FF080521A60BFF34F8FBFF36F8F28
:103D8000F0E700BF603C002004ED00E080B582B0A9
:103D900000AF00237B600CE07A6813469B0013445D
:103DA0009B00124A13441846FEF75CFC7B68013303
:103DB0007B607B680B2BEFD90D48FEF753FC0D4859
:103DC000FEF750FC0C48FEF74DFC0C48FEF74AFC91
:103DD0000B48FEF747FC0B4B054A1A600A4B054A95
:103DE0001A6000BF0837BD4680BD00BF603C0020A0
:103DF000503D0020643D0020803D0020943D002087
:103E0000AC3D0020783D00207C3D002080B582B094
:103E100000AF28E0FFF72EFC174B1B68002B0CBFF0
:103E200001230023DBB27B60FFF732FC7B68002BB1
:103E300019D1FEF7CDFD104BDB68DB683B603B68BA
:103E400004331846FEF798FC0C4B1B68013B0B4AE9
:103E500013600B4B1B68013B094A1360FEF7E6FD3C
:103E6000386800F00FF8064B1B68002BD2D100BF5A
:103E70000837BD4680BD00BF943D0020C03D0020F6
:103E8000A83D002080B582B000AF78607B681B6BD6
:103E90001846FEF7D3FA7868FEF7D0FA00BF083765
:103EA000BD4680BD80B483B000AF0F4B1B681B685C
:103EB000002B01D1012300E00023002B04D00B4B89
:103EC0004FF0FF321A6008E0074B1B68DB68DB68C5
:103ED0007B607B685B68054A136000BF0C37BD469A
:103EE0005DF8047B704700BF783D0020E03D002076
:103EF00080B483B000AF0B4B1B68002B02D10123B1
:103F00007B6008E0084B1B68002B02D102237B601A
:103F100001E000237B607B6818460C37BD465DF8E6
:103F2000047B7047CC3D0020E83D002080B584B084
:103F300000AF78607B68FB607B68002B62D0FB6819
:103F4000DA6A324B1B68DB6A9A425BD2FB689B6978
:103F5000002B06DB2D4B1B68DB6AC3F10C02FB68F0
:103F60009A61FB685969FB68DA6A13469B0013443F
:103F70009B00274A1344994201D1012300E000230A
:103F8000002B3AD0FB6804331846FEF7F5FB0346D6
:103F9000002B15D1FB68DA6A1D4913469B001344B8
:103FA0009B000B441B68002B0AD1FB68DB6A0122D3
:103FB00002FA03F3DA43174B1B681340154A1360E8
:103FC000124B1B68DA6AFB68DA62FB68DB6A012263
:103FD0009A40104B1B6813430E4A1360FB68DA6A61
:103FE00013469B0013449B00094A1A44FB680433A0
:103FF00019461046FEF763FB04E0044B1B68DA6ABF
:10400000FB68DA6200BF1037BD4680BD5C3C002013
:10401000603C0020C83D002080B586B000AF7860CD
:104020007B683B6100237B617B68002B6CD0394B44
:104030001B683A699A4209D04FF0500383F3118804
:10404000BFF36F8FBFF34F8FFB60FEE73B69DB6E03
:10405000002B09D14FF0500383F31188BFF36F8F0A
:10406000BFF34F8FBB60FEE73B69DB6E5A1E3B69B7
:10407000DA663B69DA6A3B699B6E9A4244D03B69D7
:10408000DB6E002B40D13B6904331846FEF774FB0E
:104090000346002B15D13B69DA6A1F4913469B0082
:1040A00013449B000B441B68002B0AD13B69DB6A5D
:1040B000012202FA03F3DA43184B1B681340174A34
:1040C00013603B699A6E3B69DA623B69DB6AC3F154
:1040D0000C023B699A613B69DB6A01229A400F4BF3
:1040E0001B6813430D4A13603B69DA6A13469B0051
:1040F00013449B00084A1A443B690433194610468E
:10410000FEF7DDFA01237B617B6918461837BD464F
:1041100080BD00BF5C3C0020603C0020C83D00200A
:1041200080B483B000AF094B1B689B697B60074B71
:104130001B68064A1268D26AC2F10C029A617B6857
:1041400018460C37BD465DF8047B70475C3C002088
:1041500080B400AF074B1B68002B04D0054B1B68D5
:10416000DA6E0132DA66034B1B681846BD465DF80D
:10417000047B70475C3C002080B584B000AF786061
:104180003960294B1B68FB60284B1B6804331846B9
:10419000FEF7F2FA0346002B0BD1244B1B68DB6AB7
:1041A000012202FA03F3DA43214B1B681340204A31
:1041B00013607B68B3F1FF3F0AD13B68002B07D047
:1041C0001A4B1B68043319461A48FEF778FA26E0A2
:1041D000FA687B681344BB60144B1B68BA685A606A
:1041E000BA68FB689A4209D2134B1A680F4B1B68D6
:1041F000043319461046FEF786FA10E00F4B1A6892
:104200000A4B1B68043319461046FEF77CFA0C4B28
:104210001B68BA689A4202D2094ABB68136000BFA1
:104220001037BD4680BD00BFC43D00205C3C00206F
:10423000C83D0020AC3D00207C3D0020783D0020A2
:10424000E03D002080B485B000AF78600023FB60C3
:104250000023BB600023FB600EE00023BB6003E093
:1042600000BFBB680133BB60BB6840F2E1429342D0
:10427000F6D9FB680133FB60FA687B689A42ECD39D
:1042800000BF1437BD465DF8047B704780B500AFB2
:10429000FCF750FDFCF778FDFEE70000DFF834D0B6
:1042A000002103E00C4B5B58435004310B480C4B8E
:1042B00042189A42F6D30B4A02E0002342F8043B2C
:1042C000094B9A42F9D300F02DF800F04FFAFFF7AE
:1042D000DDFF704700800120BC480008000000207E
:1042E0001800002018000020183E0020FEE780B4CF
:1042F00000AF00BFBD465DF8047B704780B400AFDF
:10430000FEE780B400AFFEE780B400AFFEE780B404
:1043100000AFFEE780B400AF00BFBD465DF8047B90
:104320007047000080B500AF164A164BD3F88830AE
:1043300043F47003C2F88830134A134B1B6843F0F0
:1043400001031360104B00229A600F4A0E4B1B684A
:1043500023F0847323F4803313600B4B0B4A5A60B1
:10436000094A094B1B6823F480231360064B002283
:10437000DA6000F089F8034B4FF000629A6000BFEA
:1043800080BD00BF00ED00E0003802401030002486
:1043900080B487B000AF00233B6100237B61022320
:1043A000FB600023BB6002237B60324B9B6803F001
:1043B0000C033B613B69042B07D0082B09D0002B71
:1043C0003DD12D4B2D4A1A603DE02B4B2C4A1A60F3
:1043D00039E0284B5B689B0D03F00103BB60254B64
:1043E0005B6803F03F037B60BB68002B0CD0244A62
:1043F0007B68B2FBF3F31F4A52689209C2F30802CA
:1044000002FB03F37B610BE01C4A7B68B2FBF3F316
:10441000184A52689209C2F3080202FB03F37B6157
:10442000144B5B681B0C03F0030301335B00FB6060
:104430007A69FB68B2FBF3F30F4A136003E00E4B9B
:104440000E4A1A6000BF0B4B9B681B0903F00F0359
:104450000C4AD35CDBB23B61074B1A683B6922FA1A
:1044600003F3054A136000BF1C37BD465DF8047BAB
:10447000704700BF00380240040000200024F40010
:1044800040787D010800002080B483B000AF002395
:104490007B6000233B60364A354B1B6843F4803316
:1044A0001360334B1B6803F400333B607B680133BC
:1044B0007B603B68002B03D17B68B3F5A06FF0D124
:1044C0002B4B1B6803F40033002B02D001233B600D
:1044D00001E000233B603B68012B42D1244A244B7E
:1044E0001B6C43F080531364224A224B1B6843F435
:1044F000404313601E4A1E4B9B6893601C4A1C4B32
:104500009B6843F400439360194A194B9B6843F43A
:10451000A0539360164B184A5A60154A144B1B68F7
:1045200043F08073136000BF114B1B6803F00073EE
:10453000002BF9D0114B40F205721A600C4A0C4B5B
:104540009B6823F003039360094A094B9B6843F07F
:104550000203936000BF064B9B6803F00C03082B1B
:10456000F9D100BF0C37BD465DF8047B704700BF32
:10457000003802400070004019544007003C0240DF
:1045800080B487B000AFF860B9607A6001237B61C6
:1045900004E07B697A6802FB03F37B617B69BA689C
:1045A000B2FBF3F27B689A42F3D229E07B69BA68E6
:1045B000B2FBF3F33B617A69BB68B3FBF2F102FB38
:1045C00001F29B1ABB607A697B6892FBF3F37B6113
:1045D0003B69092B0ADDFB681B68591CFA681160EE
:1045E0003A69D2B23732D2B21A7009E0FB681B685E
:1045F000591CFA6811603A69D2B23032D2B21A70DC
:104600007B69002BD2D100BF1C37BD465DF8047B0F
:10461000704780B588B000AFF860B9607A60FB6819
:104620007B617DE0BB681B78252B71D1BB680133B2
:10463000BB60BB681B78642B1ED0642B06DC582B38
:1046400050D0632B0ED0252B58D05DE0732B2BD090
:10465000732B02DC692B0FD056E0752B37D0782BEB
:1046600040D051E0FB685A1CFA607A68111D7960ED
:104670001268D2B21A7047E07B681A1D7A601B6814
:10468000FB61FB69002B07DAFB695B42FB61FB689E
:104690005A1CFA602D221A70F96907F10C030A22DC
:1046A0001846FFF76DFF2FE07B681A1D7A601B68C4
:1046B000BB6107E0FB685A1CFA60BA69511CB9611A
:1046C00012781A70BB691B78002BF3D11CE07B6851
:1046D0001A1D7A60196807F10C030A221846FFF7C1
:1046E0004FFF11E07B681A1D7A601B68194607F1BD
:1046F0000C0310221846FFF743FF05E0FB685A1C25
:10470000FA6025221A7000BFBB680133BB6007E066
:10471000FB685A1CFA60BA68511CB96012781A70AA
:10472000BB681B78002B7FF47DAFFB6800221A70FA
:10473000FB681A467B69D31A18462037BD4680BDF0
:104740000EB480B585B000AF786007F12003BB6080
:10475000BA68F9697868FFF75CFFF860FB6818468B
:104760001437BD46BDE8804003B0704770B50D4EAC
:104770000D4CA41BA4100025A54209D10B4E0C4CD6
:1047800000F024F8A41BA4100025A54205D170BD9B
:1047900056F8253098470135EEE756F8253098470A
:1047A0000135F2E7B4480008B4480008B4480008EE
:1047B000B848000810B5431E0A44914200D110BD0C
:1047C00011F8014B03F8014FF7E70000F8B500BFFF
:1047D000F8BC08BC9E467047F8B500BFF8BC08BCE2
:0447E0009E4670473A
:1047E400456E74657220706173733A200000000096
:1047F400436F6E6669726D20706173733A200000B6
:104804005375636365737320000000004368656338
:104814006B20706173733A2000000000556E61755F
:1048240074686F72697A656420000000436F6E6675
:1048340069726D6564200000342E20456E746572C3
:1048440020505700352E204368616E67652050570D
:1048540000000000486F757365206973206F7065F0
:104864006E656400486F75736520697320636C6FAF
:1048740073656400526F6F6D2054656D70203D2028
:1048840025640A20000000005468652054656D709A
:104894002E20697320746F6F206869676820202553
:1048A400642020430A00000049444C4500000000F5
:0448B400B501000842
:0448B8009101000862
:1048BC00AAAAAAAA007A030A0000000000000000BD
:0848CC000102030406070809BC
:040000050800429D10
:00000001FF
